{
  "_format": "hh-sol-artifact-1",
  "contractName": "NFTVideo",
  "sourceName": "contracts/Video.sol",
  "abi": [
    {
      "inputs": [],
      "stateMutability": "nonpayable",
      "type": "constructor"
    },
    {
      "anonymous": false,
      "inputs": [
        {
          "indexed": true,
          "internalType": "uint256",
          "name": "itemId",
          "type": "uint256"
        },
        {
          "indexed": true,
          "internalType": "address",
          "name": "nftContract",
          "type": "address"
        },
        {
          "indexed": true,
          "internalType": "uint256",
          "name": "tokenId",
          "type": "uint256"
        },
        {
          "indexed": false,
          "internalType": "address",
          "name": "seller",
          "type": "address"
        },
        {
          "indexed": false,
          "internalType": "address",
          "name": "owner",
          "type": "address"
        },
        {
          "indexed": false,
          "internalType": "uint256",
          "name": "price",
          "type": "uint256"
        },
        {
          "indexed": false,
          "internalType": "bool",
          "name": "sold",
          "type": "bool"
        }
      ],
      "name": "MarketItemCreated",
      "type": "event"
    },
    {
      "inputs": [
        {
          "internalType": "address",
          "name": "nftContract",
          "type": "address"
        },
        {
          "internalType": "uint256",
          "name": "tokenId",
          "type": "uint256"
        },
        {
          "internalType": "uint256",
          "name": "price",
          "type": "uint256"
        }
      ],
      "name": "createMarketItem",
      "outputs": [],
      "stateMutability": "payable",
      "type": "function"
    },
    {
      "inputs": [
        {
          "internalType": "address",
          "name": "nftContract",
          "type": "address"
        },
        {
          "internalType": "uint256",
          "name": "itemId",
          "type": "uint256"
        }
      ],
      "name": "createMarketSale",
      "outputs": [],
      "stateMutability": "payable",
      "type": "function"
    },
    {
      "inputs": [],
      "name": "fetchItem",
      "outputs": [
        {
          "components": [
            {
              "internalType": "uint256",
              "name": "itemId",
              "type": "uint256"
            },
            {
              "internalType": "address",
              "name": "nftContract",
              "type": "address"
            },
            {
              "internalType": "uint256",
              "name": "tokenId",
              "type": "uint256"
            },
            {
              "internalType": "address payable",
              "name": "seller",
              "type": "address"
            },
            {
              "internalType": "address payable",
              "name": "owner",
              "type": "address"
            },
            {
              "internalType": "uint256",
              "name": "price",
              "type": "uint256"
            },
            {
              "internalType": "bool",
              "name": "sold",
              "type": "bool"
            }
          ],
          "internalType": "struct NFTVideo.MarketItem[]",
          "name": "",
          "type": "tuple[]"
        }
      ],
      "stateMutability": "view",
      "type": "function"
    },
    {
      "inputs": [],
      "name": "fetchItemsCreated",
      "outputs": [
        {
          "components": [
            {
              "internalType": "uint256",
              "name": "itemId",
              "type": "uint256"
            },
            {
              "internalType": "address",
              "name": "nftContract",
              "type": "address"
            },
            {
              "internalType": "uint256",
              "name": "tokenId",
              "type": "uint256"
            },
            {
              "internalType": "address payable",
              "name": "seller",
              "type": "address"
            },
            {
              "internalType": "address payable",
              "name": "owner",
              "type": "address"
            },
            {
              "internalType": "uint256",
              "name": "price",
              "type": "uint256"
            },
            {
              "internalType": "bool",
              "name": "sold",
              "type": "bool"
            }
          ],
          "internalType": "struct NFTVideo.MarketItem[]",
          "name": "",
          "type": "tuple[]"
        }
      ],
      "stateMutability": "view",
      "type": "function"
    },
    {
      "inputs": [],
      "name": "fetchMarketItems",
      "outputs": [
        {
          "components": [
            {
              "internalType": "uint256",
              "name": "itemId",
              "type": "uint256"
            },
            {
              "internalType": "address",
              "name": "nftContract",
              "type": "address"
            },
            {
              "internalType": "uint256",
              "name": "tokenId",
              "type": "uint256"
            },
            {
              "internalType": "address payable",
              "name": "seller",
              "type": "address"
            },
            {
              "internalType": "address payable",
              "name": "owner",
              "type": "address"
            },
            {
              "internalType": "uint256",
              "name": "price",
              "type": "uint256"
            },
            {
              "internalType": "bool",
              "name": "sold",
              "type": "bool"
            }
          ],
          "internalType": "struct NFTVideo.MarketItem[]",
          "name": "",
          "type": "tuple[]"
        }
      ],
      "stateMutability": "view",
      "type": "function"
    },
    {
      "inputs": [],
      "name": "fetchMyNFTs",
      "outputs": [
        {
          "components": [
            {
              "internalType": "uint256",
              "name": "itemId",
              "type": "uint256"
            },
            {
              "internalType": "address",
              "name": "nftContract",
              "type": "address"
            },
            {
              "internalType": "uint256",
              "name": "tokenId",
              "type": "uint256"
            },
            {
              "internalType": "address payable",
              "name": "seller",
              "type": "address"
            },
            {
              "internalType": "address payable",
              "name": "owner",
              "type": "address"
            },
            {
              "internalType": "uint256",
              "name": "price",
              "type": "uint256"
            },
            {
              "internalType": "bool",
              "name": "sold",
              "type": "bool"
            }
          ],
          "internalType": "struct NFTVideo.MarketItem[]",
          "name": "",
          "type": "tuple[]"
        }
      ],
      "stateMutability": "view",
      "type": "function"
    },
    {
      "inputs": [],
      "name": "getListingPrice",
      "outputs": [
        {
          "internalType": "uint256",
          "name": "",
          "type": "uint256"
        }
      ],
      "stateMutability": "view",
      "type": "function"
    }
  ],
  "bytecode": "0x608060405266071afd498d000060045534801561001b57600080fd5b506001600055600380546001600160a01b03191633179055610e21806100426000396000f3fe6080604052600436106100705760003560e01c806358eb2df51161004e57806358eb2df5146100d357806375ac802b146100e8578063c23b139e146100fd578063f064c32e1461011057600080fd5b80630f08efe01461007557806312e85585146100a0578063202e3740146100be575b600080fd5b34801561008157600080fd5b5061008a610125565b6040516100979190610c52565b60405180910390f35b3480156100ac57600080fd5b50600454604051908152602001610097565b3480156100ca57600080fd5b5061008a6102b1565b6100e66100e1366004610d02565b61047b565b005b3480156100f457600080fd5b5061008a6106ce565b6100e661010b366004610d35565b61082f565b34801561011c57600080fd5b5061008a610a4c565b6060600061013260015490565b9050600061013f60025490565b60015461014c9190610d75565b90506000808267ffffffffffffffff81111561016a5761016a610d8c565b6040519080825280602002602001820160405280156101a357816020015b610190610c16565b8152602001906001900390816101885790505b50905060005b848110156102a85760006005816101c1846001610da2565b81526020810191909152604001600020600401546001600160a01b031614156102965760006101f1826001610da2565b600081815260056020818152604092839020835160e0810185528154815260018201546001600160a01b0390811693820193909352600282015494810194909452600381015482166060850152600481015490911660808401529081015460a0830152600681015460ff16151560c083015285519293509185908790811061027b5761027b610dba565b6020908102919091010152610291600186610da2565b945050505b806102a081610dd0565b9150506101a9565b50949350505050565b606060006102be60015490565b905060008060005b838110156103215733600560006102de846001610da2565b81526020810191909152604001600020600401546001600160a01b0316141561030f5761030c600184610da2565b92505b8061031981610dd0565b9150506102c6565b5060008267ffffffffffffffff81111561033d5761033d610d8c565b60405190808252806020026020018201604052801561037657816020015b610363610c16565b81526020019060019003908161035b5790505b50905060005b848110156102a8573360056000610394846001610da2565b81526020810191909152604001600020600401546001600160a01b031614156104695760006103c4826001610da2565b600081815260056020818152604092839020835160e0810185528154815260018201546001600160a01b0390811693820193909352600282015494810194909452600381015482166060850152600481015490911660808401529081015460a0830152600681015460ff16151560c083015285519293509185908790811061044e5761044e610dba565b6020908102919091010152610464600186610da2565b945050505b8061047381610dd0565b91505061037c565b600260005414156104d35760405162461bcd60e51b815260206004820152601f60248201527f5265656e7472616e637947756172643a207265656e7472616e742063616c6c0060448201526064015b60405180910390fd5b600260005560045434146105355760405162461bcd60e51b8152602060048201526024808201527f5072696365206d75737420626520657175616c20746f206c697374696e6720706044820152637269636560e01b60648201526084016104ca565b610543600180546001019055565b600061054e60015490565b6040805160e0810182528281526001600160a01b0387811660208084018281528486018a8152336060870181815260006080890181815260a08a018e815260c08b018381528d8452600598899052928c90209a518b55955160018b018054918b166001600160a01b0319928316179055945160028b0155915160038a018054918a1691861691909117905590516004808a01805492909916919094161790965591519286019290925592516006909401805494151560ff199095169490941790935592516323b872dd60e01b81529182015230602482015260448101869052919250906323b872dd90606401600060405180830381600087803b15801561065457600080fd5b505af1158015610668573d6000803e3d6000fd5b505060408051338152600060208201819052818301879052606082015290518693506001600160a01b038816925084917f045dfa01dcba2b36aba1d3dc4a874f4b0c5d2fbeb8d2c4b34a7d88c8d8f929d1919081900360800190a4505060016000555050565b606060006106db60015490565b90506000805b8281101561073c5733600560006106f9846001610da2565b81526020810191909152604001600020600401546001600160a01b0316141561072a57610727600183610da2565b91505b8061073481610dd0565b9150506106e1565b5060008167ffffffffffffffff81111561075857610758610d8c565b60405190808252806020026020018201604052801561079157816020015b61077e610c16565b8152602001906001900390816107765790505b50600083815260056020818152604092839020835160e0810185528154815260018201546001600160a01b0390811693820193909352600282015494810194909452600381015482166060850152600481015490911660808401529081015460a0830152600681015460ff16151560c083015282519293509183908590811061081c5761081c610dba565b6020908102919091010152509392505050565b600260005414156108825760405162461bcd60e51b815260206004820152601f60248201527f5265656e7472616e637947756172643a207265656e7472616e742063616c6c0060448201526064016104ca565b600260008181558281526005602081905260409091209081015491015434821115610917576040805162461bcd60e51b81526020600482015260248101919091527f506c65617365207375626d6974207468652061736b696e67207072696365206960448201527f6e206f7264657220746f20636f6d706c6574652074686520707572636861736560648201526084016104ca565b6000838152600560205260408082206003015490516001600160a01b03909116913480156108fc02929091818181858888f1935050505015801561095f573d6000803e3d6000fd5b506040516323b872dd60e01b8152306004820152336024820152604481018290526001600160a01b038516906323b872dd90606401600060405180830381600087803b1580156109ae57600080fd5b505af11580156109c2573d6000803e3d6000fd5b50505060008481526005602052604090206004810180546001600160a01b03191633179055600601805460ff1916600117905550610a04600280546001019055565b6003546004546040516001600160a01b039092169181156108fc0291906000818181858888f19350505050158015610a40573d6000803e3d6000fd5b50506001600055505050565b60606000610a5960015490565b905060008060005b83811015610abc573360056000610a79846001610da2565b81526020810191909152604001600020600301546001600160a01b03161415610aaa57610aa7600184610da2565b92505b80610ab481610dd0565b915050610a61565b5060008267ffffffffffffffff811115610ad857610ad8610d8c565b604051908082528060200260200182016040528015610b1157816020015b610afe610c16565b815260200190600190039081610af65790505b50905060005b848110156102a8573360056000610b2f846001610da2565b81526020810191909152604001600020600301546001600160a01b03161415610c04576000610b5f826001610da2565b600081815260056020818152604092839020835160e0810185528154815260018201546001600160a01b0390811693820193909352600282015494810194909452600381015482166060850152600481015490911660808401529081015460a0830152600681015460ff16151560c0830152855192935091859087908110610be957610be9610dba565b6020908102919091010152610bff600186610da2565b945050505b80610c0e81610dd0565b915050610b17565b6040805160e081018252600080825260208201819052918101829052606081018290526080810182905260a0810182905260c081019190915290565b602080825282518282018190526000919060409081850190868401855b82811015610cd957815180518552868101516001600160a01b039081168887015286820151878701526060808301518216908701526080808301519091169086015260a0808201519086015260c09081015115159085015260e09093019290850190600101610c6f565b5091979650505050505050565b80356001600160a01b0381168114610cfd57600080fd5b919050565b600080600060608486031215610d1757600080fd5b610d2084610ce6565b95602085013595506040909401359392505050565b60008060408385031215610d4857600080fd5b610d5183610ce6565b946020939093013593505050565b634e487b7160e01b600052601160045260246000fd5b600082821015610d8757610d87610d5f565b500390565b634e487b7160e01b600052604160045260246000fd5b60008219821115610db557610db5610d5f565b500190565b634e487b7160e01b600052603260045260246000fd5b6000600019821415610de457610de4610d5f565b506001019056fea26469706673582212203231c53424ad804e39ab519ff3cf0983ce0d7d32c72f60eae44f7c44adfeb4d864736f6c63430008080033",
  "linkReferences": {},
  "deployedLinkReferences": {}
}